{
  "_format": "hh-sol-artifact-1",
  "contractName": "NFTStaking",
  "sourceName": "contracts/NFTStaking.sol",
  "abi": [
    {
      "inputs": [
        {
          "internalType": "address",
          "name": "_nftCollection",
          "type": "address"
        },
        {
          "internalType": "address",
          "name": "_rewardToken",
          "type": "address"
        }
      ],
      "stateMutability": "nonpayable",
      "type": "constructor"
    },
    {
      "inputs": [
        {
          "internalType": "address",
          "name": "owner",
          "type": "address"
        }
      ],
      "name": "OwnableInvalidOwner",
      "type": "error"
    },
    {
      "inputs": [
        {
          "internalType": "address",
          "name": "account",
          "type": "address"
        }
      ],
      "name": "OwnableUnauthorizedAccount",
      "type": "error"
    },
    {
      "inputs": [],
      "name": "ReentrancyGuardReentrantCall",
      "type": "error"
    },
    {
      "anonymous": false,
      "inputs": [
        {
          "indexed": true,
          "internalType": "address",
          "name": "previousOwner",
          "type": "address"
        },
        {
          "indexed": true,
          "internalType": "address",
          "name": "newOwner",
          "type": "address"
        }
      ],
      "name": "OwnershipTransferred",
      "type": "event"
    },
    {
      "anonymous": false,
      "inputs": [
        {
          "indexed": false,
          "internalType": "address",
          "name": "user",
          "type": "address"
        },
        {
          "indexed": false,
          "internalType": "uint256",
          "name": "reward",
          "type": "uint256"
        }
      ],
      "name": "RewardPaid",
      "type": "event"
    },
    {
      "anonymous": false,
      "inputs": [
        {
          "indexed": false,
          "internalType": "address",
          "name": "owner",
          "type": "address"
        },
        {
          "indexed": false,
          "internalType": "uint256",
          "name": "tokenId",
          "type": "uint256"
        },
        {
          "indexed": false,
          "internalType": "uint256",
          "name": "timestamp",
          "type": "uint256"
        }
      ],
      "name": "Staked",
      "type": "event"
    },
    {
      "anonymous": false,
      "inputs": [
        {
          "indexed": false,
          "internalType": "address",
          "name": "owner",
          "type": "address"
        },
        {
          "indexed": false,
          "internalType": "uint256",
          "name": "tokenId",
          "type": "uint256"
        },
        {
          "indexed": false,
          "internalType": "uint256",
          "name": "timestamp",
          "type": "uint256"
        }
      ],
      "name": "Unstaked",
      "type": "event"
    },
    {
      "inputs": [
        {
          "internalType": "uint256",
          "name": "tokenId",
          "type": "uint256"
        }
      ],
      "name": "calculateReward",
      "outputs": [
        {
          "internalType": "uint256",
          "name": "",
          "type": "uint256"
        }
      ],
      "stateMutability": "view",
      "type": "function"
    },
    {
      "inputs": [
        {
          "internalType": "uint256[]",
          "name": "tokenIds",
          "type": "uint256[]"
        }
      ],
      "name": "claim",
      "outputs": [],
      "stateMutability": "nonpayable",
      "type": "function"
    },
    {
      "inputs": [
        {
          "internalType": "address",
          "name": "user",
          "type": "address"
        }
      ],
      "name": "getStakedTokens",
      "outputs": [
        {
          "internalType": "uint256[]",
          "name": "",
          "type": "uint256[]"
        }
      ],
      "stateMutability": "view",
      "type": "function"
    },
    {
      "inputs": [],
      "name": "nftCollection",
      "outputs": [
        {
          "internalType": "contract DemoNFT",
          "name": "",
          "type": "address"
        }
      ],
      "stateMutability": "view",
      "type": "function"
    },
    {
      "inputs": [],
      "name": "owner",
      "outputs": [
        {
          "internalType": "address",
          "name": "",
          "type": "address"
        }
      ],
      "stateMutability": "view",
      "type": "function"
    },
    {
      "inputs": [],
      "name": "renounceOwnership",
      "outputs": [],
      "stateMutability": "nonpayable",
      "type": "function"
    },
    {
      "inputs": [],
      "name": "rewardPerHour",
      "outputs": [
        {
          "internalType": "uint256",
          "name": "",
          "type": "uint256"
        }
      ],
      "stateMutability": "view",
      "type": "function"
    },
    {
      "inputs": [],
      "name": "rewardToken",
      "outputs": [
        {
          "internalType": "contract RewardToken",
          "name": "",
          "type": "address"
        }
      ],
      "stateMutability": "view",
      "type": "function"
    },
    {
      "inputs": [
        {
          "internalType": "uint256[]",
          "name": "tokenIds",
          "type": "uint256[]"
        }
      ],
      "name": "stake",
      "outputs": [],
      "stateMutability": "nonpayable",
      "type": "function"
    },
    {
      "inputs": [
        {
          "internalType": "address",
          "name": "newOwner",
          "type": "address"
        }
      ],
      "name": "transferOwnership",
      "outputs": [],
      "stateMutability": "nonpayable",
      "type": "function"
    },
    {
      "inputs": [
        {
          "internalType": "uint256[]",
          "name": "tokenIds",
          "type": "uint256[]"
        }
      ],
      "name": "unstake",
      "outputs": [],
      "stateMutability": "nonpayable",
      "type": "function"
    },
    {
      "inputs": [
        {
          "internalType": "uint256",
          "name": "",
          "type": "uint256"
        }
      ],
      "name": "vault",
      "outputs": [
        {
          "internalType": "address",
          "name": "owner",
          "type": "address"
        },
        {
          "internalType": "uint256",
          "name": "tokenId",
          "type": "uint256"
        },
        {
          "internalType": "uint256",
          "name": "timestamp",
          "type": "uint256"
        }
      ],
      "stateMutability": "view",
      "type": "function"
    }
  ],
  "bytecode": "0x60c0604052678ac7230489e800006003553480156200001d57600080fd5b5060405162001d4238038062001d42833981810160405281019062000043919062000270565b33600073ffffffffffffffffffffffffffffffffffffffff168173ffffffffffffffffffffffffffffffffffffffff1603620000b95760006040517f1e4fbdf7000000000000000000000000000000000000000000000000000000008152600401620000b09190620002c8565b60405180910390fd5b620000ca816200014260201b60201c565b50600180819055508173ffffffffffffffffffffffffffffffffffffffff1660808173ffffffffffffffffffffffffffffffffffffffff16815250508073ffffffffffffffffffffffffffffffffffffffff1660a08173ffffffffffffffffffffffffffffffffffffffff16815250505050620002e5565b60008060009054906101000a900473ffffffffffffffffffffffffffffffffffffffff169050816000806101000a81548173ffffffffffffffffffffffffffffffffffffffff021916908373ffffffffffffffffffffffffffffffffffffffff1602179055508173ffffffffffffffffffffffffffffffffffffffff168173ffffffffffffffffffffffffffffffffffffffff167f8be0079c531659141344cd1fd0a4f28419497f9722a3daafe3b4186f6b6457e060405160405180910390a35050565b600080fd5b600073ffffffffffffffffffffffffffffffffffffffff82169050919050565b600062000238826200020b565b9050919050565b6200024a816200022b565b81146200025657600080fd5b50565b6000815190506200026a816200023f565b92915050565b600080604083850312156200028a576200028962000206565b5b60006200029a8582860162000259565b9250506020620002ad8582860162000259565b9150509250929050565b620002c2816200022b565b82525050565b6000602082019050620002df6000830184620002b7565b92915050565b60805160a051611a066200033c6000396000818161088b01528181610eba015261101401526000818161028a0152818161037a015281816105110152818161074b01528181610acb0152610dd10152611a066000f3fe608060405234801561001057600080fd5b50600436106100b45760003560e01c806381a36fb61161007157806381a36fb6146101675780638da5cb5b14610199578063d2d7231f146101b7578063e449f341146101e7578063f2fde38b14610203578063f7c618c11461021f576100b4565b80630fbf0a93146100b957806361414358146100d557806363c28db1146100f35780636588103b146101235780636ba4c13814610141578063715018a61461015d575b600080fd5b6100d360048036038101906100ce9190611247565b61023d565b005b6100dd610505565b6040516100ea91906112ad565b60405180910390f35b61010d60048036038101906101089190611326565b61050b565b60405161011a9190611411565b60405180910390f35b61012b610749565b6040516101389190611492565b60405180910390f35b61015b60048036038101906101569190611247565b61076d565b005b61016561095d565b005b610181600480360381019061017c91906114d9565b610971565b60405161019093929190611515565b60405180910390f35b6101a16109bb565b6040516101ae919061154c565b60405180910390f35b6101d160048036038101906101cc91906114d9565b6109e4565b6040516101de91906112ad565b60405180910390f35b61020160048036038101906101fc9190611247565b610c39565b005b61021d60048036038101906102189190611326565b610f8c565b005b610227611012565b6040516102349190611588565b60405180910390f35b610245611036565b60005b828290508110156104f8576000838383818110610268576102676115a3565b5b9050602002013590503373ffffffffffffffffffffffffffffffffffffffff167f000000000000000000000000000000000000000000000000000000000000000073ffffffffffffffffffffffffffffffffffffffff16636352211e836040518263ffffffff1660e01b81526004016102e191906112ad565b602060405180830381865afa1580156102fe573d6000803e3d6000fd5b505050506040513d601f19601f8201168201806040525081019061032291906115e7565b73ffffffffffffffffffffffffffffffffffffffff1614610378576040517f08c379a000000000000000000000000000000000000000000000000000000000815260040161036f90611671565b60405180910390fd5b7f000000000000000000000000000000000000000000000000000000000000000073ffffffffffffffffffffffffffffffffffffffff166323b872dd3330846040518463ffffffff1660e01b81526004016103d593929190611691565b600060405180830381600087803b1580156103ef57600080fd5b505af1158015610403573d6000803e3d6000fd5b5050505060405180606001604052803373ffffffffffffffffffffffffffffffffffffffff168152602001828152602001428152506002600083815260200190815260200160002060008201518160000160006101000a81548173ffffffffffffffffffffffffffffffffffffffff021916908373ffffffffffffffffffffffffffffffffffffffff16021790555060208201518160010155604082015181600201559050507f1449c6dd7851abc30abf37f57715f492010519147cc2652fbc38202c18a6ee903382426040516104dc93929190611515565b60405180910390a15080806104f0906116f7565b915050610248565b5061050161107c565b5050565b60035481565b606060007f000000000000000000000000000000000000000000000000000000000000000073ffffffffffffffffffffffffffffffffffffffff166318160ddd6040518163ffffffff1660e01b8152600401602060405180830381865afa15801561057a573d6000803e3d6000fd5b505050506040513d601f19601f8201168201806040525081019061059e9190611754565b90506000805b82811015610637578473ffffffffffffffffffffffffffffffffffffffff166002600083815260200190815260200160002060000160009054906101000a900473ffffffffffffffffffffffffffffffffffffffff1673ffffffffffffffffffffffffffffffffffffffff1603610624578180610620906116f7565b9250505b808061062f906116f7565b9150506105a4565b5060008167ffffffffffffffff81111561065457610653611781565b5b6040519080825280602002602001820160405280156106825781602001602082028036833780820191505090505b5090506000805b8481101561073c578673ffffffffffffffffffffffffffffffffffffffff166002600083815260200190815260200160002060000160009054906101000a900473ffffffffffffffffffffffffffffffffffffffff1673ffffffffffffffffffffffffffffffffffffffff1603610729578083838151811061070e5761070d6115a3565b5b6020026020010181815250508180610725906116f7565b9250505b8080610734906116f7565b915050610689565b5081945050505050919050565b7f000000000000000000000000000000000000000000000000000000000000000081565b610775611036565b6000805b8383905081101561087f576000848483818110610799576107986115a3565b5b90506020020135905060006002600083815260200190815260200160002090503373ffffffffffffffffffffffffffffffffffffffff168160000160009054906101000a900473ffffffffffffffffffffffffffffffffffffffff1673ffffffffffffffffffffffffffffffffffffffff161461084b576040517f08c379a0000000000000000000000000000000000000000000000000000000008152600401610842906117fc565b60405180910390fd5b610854826109e4565b8461085f919061181c565b935042816002018190555050508080610877906116f7565b915050610779565b506000811115610950577f000000000000000000000000000000000000000000000000000000000000000073ffffffffffffffffffffffffffffffffffffffff166340c10f1933836040518363ffffffff1660e01b81526004016108e4929190611850565b600060405180830381600087803b1580156108fe57600080fd5b505af1158015610912573d6000803e3d6000fd5b505050507fe2403640ba68fed3a2f88b7557551d1993f84b99bb10ff833f0cf8db0c5e04863382604051610947929190611850565b60405180910390a15b5061095961107c565b5050565b610965611085565b61096f600061110c565b565b60026020528060005260406000206000915090508060000160009054906101000a900473ffffffffffffffffffffffffffffffffffffffff16908060010154908060020154905083565b60008060009054906101000a900473ffffffffffffffffffffffffffffffffffffffff16905090565b600080600260008481526020019081526020016000206040518060600160405290816000820160009054906101000a900473ffffffffffffffffffffffffffffffffffffffff1673ffffffffffffffffffffffffffffffffffffffff1673ffffffffffffffffffffffffffffffffffffffff168152602001600182015481526020016002820154815250509050600073ffffffffffffffffffffffffffffffffffffffff16816000015173ffffffffffffffffffffffffffffffffffffffff1603610ab3576000915050610c34565b6000816040015142610ac59190611879565b905060007f000000000000000000000000000000000000000000000000000000000000000073ffffffffffffffffffffffffffffffffffffffff1663afb0a369866040518263ffffffff1660e01b8152600401610b2291906112ad565b602060405180830381865afa158015610b3f573d6000803e3d6000fd5b505050506040513d601f19601f82011682018060405250810190610b6391906118d2565b905060006001905060016003811115610b7f57610b7e6118ff565b5b826003811115610b9257610b916118ff565b5b03610ba05760029050610c07565b60026003811115610bb457610bb36118ff565b5b826003811115610bc757610bc66118ff565b5b03610bd55760059050610c06565b600380811115610be857610be76118ff565b5b826003811115610bfb57610bfa6118ff565b5b03610c0557600a90505b5b5b610e108160035485610c19919061192e565b610c23919061192e565b610c2d919061199f565b9450505050505b919050565b610c41611036565b6000805b83839050811015610eae576000848483818110610c6557610c646115a3565b5b9050602002013590506000600260008381526020019081526020016000206040518060600160405290816000820160009054906101000a900473ffffffffffffffffffffffffffffffffffffffff1673ffffffffffffffffffffffffffffffffffffffff1673ffffffffffffffffffffffffffffffffffffffff1681526020016001820154815260200160028201548152505090503373ffffffffffffffffffffffffffffffffffffffff16816000015173ffffffffffffffffffffffffffffffffffffffff1614610d6c576040517f08c379a0000000000000000000000000000000000000000000000000000000008152600401610d63906117fc565b60405180910390fd5b610d75826109e4565b84610d80919061181c565b935060026000838152602001908152602001600020600080820160006101000a81549073ffffffffffffffffffffffffffffffffffffffff02191690556001820160009055600282016000905550507f000000000000000000000000000000000000000000000000000000000000000073ffffffffffffffffffffffffffffffffffffffff166323b872dd3033856040518463ffffffff1660e01b8152600401610e2c93929190611691565b600060405180830381600087803b158015610e4657600080fd5b505af1158015610e5a573d6000803e3d6000fd5b505050507f7fc4727e062e336010f2c282598ef5f14facb3de68cf8195c2f23e1454b2b74e338342604051610e9193929190611515565b60405180910390a150508080610ea6906116f7565b915050610c45565b506000811115610f7f577f000000000000000000000000000000000000000000000000000000000000000073ffffffffffffffffffffffffffffffffffffffff166340c10f1933836040518363ffffffff1660e01b8152600401610f13929190611850565b600060405180830381600087803b158015610f2d57600080fd5b505af1158015610f41573d6000803e3d6000fd5b505050507fe2403640ba68fed3a2f88b7557551d1993f84b99bb10ff833f0cf8db0c5e04863382604051610f76929190611850565b60405180910390a15b50610f8861107c565b5050565b610f94611085565b600073ffffffffffffffffffffffffffffffffffffffff168173ffffffffffffffffffffffffffffffffffffffff16036110065760006040517f1e4fbdf7000000000000000000000000000000000000000000000000000000008152600401610ffd919061154c565b60405180910390fd5b61100f8161110c565b50565b7f000000000000000000000000000000000000000000000000000000000000000081565b600260015403611072576040517f3ee5aeb500000000000000000000000000000000000000000000000000000000815260040160405180910390fd5b6002600181905550565b60018081905550565b61108d6111d0565b73ffffffffffffffffffffffffffffffffffffffff166110ab6109bb565b73ffffffffffffffffffffffffffffffffffffffff161461110a576110ce6111d0565b6040517f118cdaa7000000000000000000000000000000000000000000000000000000008152600401611101919061154c565b60405180910390fd5b565b60008060009054906101000a900473ffffffffffffffffffffffffffffffffffffffff169050816000806101000a81548173ffffffffffffffffffffffffffffffffffffffff021916908373ffffffffffffffffffffffffffffffffffffffff1602179055508173ffffffffffffffffffffffffffffffffffffffff168173ffffffffffffffffffffffffffffffffffffffff167f8be0079c531659141344cd1fd0a4f28419497f9722a3daafe3b4186f6b6457e060405160405180910390a35050565b600033905090565b600080fd5b600080fd5b600080fd5b600080fd5b600080fd5b60008083601f840112611207576112066111e2565b5b8235905067ffffffffffffffff811115611224576112236111e7565b5b6020830191508360208202830111156112405761123f6111ec565b5b9250929050565b6000806020838503121561125e5761125d6111d8565b5b600083013567ffffffffffffffff81111561127c5761127b6111dd565b5b611288858286016111f1565b92509250509250929050565b6000819050919050565b6112a781611294565b82525050565b60006020820190506112c2600083018461129e565b92915050565b600073ffffffffffffffffffffffffffffffffffffffff82169050919050565b60006112f3826112c8565b9050919050565b611303816112e8565b811461130e57600080fd5b50565b600081359050611320816112fa565b92915050565b60006020828403121561133c5761133b6111d8565b5b600061134a84828501611311565b91505092915050565b600081519050919050565b600082825260208201905092915050565b6000819050602082019050919050565b61138881611294565b82525050565b600061139a838361137f565b60208301905092915050565b6000602082019050919050565b60006113be82611353565b6113c8818561135e565b93506113d38361136f565b8060005b838110156114045781516113eb888261138e565b97506113f6836113a6565b9250506001810190506113d7565b5085935050505092915050565b6000602082019050818103600083015261142b81846113b3565b905092915050565b6000819050919050565b600061145861145361144e846112c8565b611433565b6112c8565b9050919050565b600061146a8261143d565b9050919050565b600061147c8261145f565b9050919050565b61148c81611471565b82525050565b60006020820190506114a76000830184611483565b92915050565b6114b681611294565b81146114c157600080fd5b50565b6000813590506114d3816114ad565b92915050565b6000602082840312156114ef576114ee6111d8565b5b60006114fd848285016114c4565b91505092915050565b61150f816112e8565b82525050565b600060608201905061152a6000830186611506565b611537602083018561129e565b611544604083018461129e565b949350505050565b60006020820190506115616000830184611506565b92915050565b60006115728261145f565b9050919050565b61158281611567565b82525050565b600060208201905061159d6000830184611579565b92915050565b7f4e487b7100000000000000000000000000000000000000000000000000000000600052603260045260246000fd5b6000815190506115e1816112fa565b92915050565b6000602082840312156115fd576115fc6111d8565b5b600061160b848285016115d2565b91505092915050565b600082825260208201905092915050565b7f4e6f74206f776e65720000000000000000000000000000000000000000000000600082015250565b600061165b600983611614565b915061166682611625565b602082019050919050565b6000602082019050818103600083015261168a8161164e565b9050919050565b60006060820190506116a66000830186611506565b6116b36020830185611506565b6116c0604083018461129e565b949350505050565b7f4e487b7100000000000000000000000000000000000000000000000000000000600052601160045260246000fd5b600061170282611294565b91507fffffffffffffffffffffffffffffffffffffffffffffffffffffffffffffffff8203611734576117336116c8565b5b600182019050919050565b60008151905061174e816114ad565b92915050565b60006020828403121561176a576117696111d8565b5b60006117788482850161173f565b91505092915050565b7f4e487b7100000000000000000000000000000000000000000000000000000000600052604160045260246000fd5b7f4e6f74207374616b657200000000000000000000000000000000000000000000600082015250565b60006117e6600a83611614565b91506117f1826117b0565b602082019050919050565b60006020820190508181036000830152611815816117d9565b9050919050565b600061182782611294565b915061183283611294565b925082820190508082111561184a576118496116c8565b5b92915050565b60006040820190506118656000830185611506565b611872602083018461129e565b9392505050565b600061188482611294565b915061188f83611294565b92508282039050818111156118a7576118a66116c8565b5b92915050565b600481106118ba57600080fd5b50565b6000815190506118cc816118ad565b92915050565b6000602082840312156118e8576118e76111d8565b5b60006118f6848285016118bd565b91505092915050565b7f4e487b7100000000000000000000000000000000000000000000000000000000600052602160045260246000fd5b600061193982611294565b915061194483611294565b925082820261195281611294565b91508282048414831517611969576119686116c8565b5b5092915050565b7f4e487b7100000000000000000000000000000000000000000000000000000000600052601260045260246000fd5b60006119aa82611294565b91506119b583611294565b9250826119c5576119c4611970565b5b82820490509291505056fea264697066735822122003b3032f5829c7601bcf79b34196ada8efb9b877217930fc050ac5c140304aa164736f6c63430008140033",
  "linkReferences": {},
  "deployedLinkReferences": {}
}