{
  "_format": "hh-sol-artifact-1",
  "contractName": "DemoNFT",
  "sourceName": "contracts/DemoNFT.sol",
  "abi": [
    {
      "inputs": [],
      "stateMutability": "nonpayable",
      "type": "constructor"
    },
    {
      "inputs": [],
      "name": "ERC721EnumerableForbiddenBatchMint",
      "type": "error"
    },
    {
      "inputs": [
        {
          "internalType": "address",
          "name": "sender",
          "type": "address"
        },
        {
          "internalType": "uint256",
          "name": "tokenId",
          "type": "uint256"
        },
        {
          "internalType": "address",
          "name": "owner",
          "type": "address"
        }
      ],
      "name": "ERC721IncorrectOwner",
      "type": "error"
    },
    {
      "inputs": [
        {
          "internalType": "address",
          "name": "operator",
          "type": "address"
        },
        {
          "internalType": "uint256",
          "name": "tokenId",
          "type": "uint256"
        }
      ],
      "name": "ERC721InsufficientApproval",
      "type": "error"
    },
    {
      "inputs": [
        {
          "internalType": "address",
          "name": "approver",
          "type": "address"
        }
      ],
      "name": "ERC721InvalidApprover",
      "type": "error"
    },
    {
      "inputs": [
        {
          "internalType": "address",
          "name": "operator",
          "type": "address"
        }
      ],
      "name": "ERC721InvalidOperator",
      "type": "error"
    },
    {
      "inputs": [
        {
          "internalType": "address",
          "name": "owner",
          "type": "address"
        }
      ],
      "name": "ERC721InvalidOwner",
      "type": "error"
    },
    {
      "inputs": [
        {
          "internalType": "address",
          "name": "receiver",
          "type": "address"
        }
      ],
      "name": "ERC721InvalidReceiver",
      "type": "error"
    },
    {
      "inputs": [
        {
          "internalType": "address",
          "name": "sender",
          "type": "address"
        }
      ],
      "name": "ERC721InvalidSender",
      "type": "error"
    },
    {
      "inputs": [
        {
          "internalType": "uint256",
          "name": "tokenId",
          "type": "uint256"
        }
      ],
      "name": "ERC721NonexistentToken",
      "type": "error"
    },
    {
      "inputs": [
        {
          "internalType": "address",
          "name": "owner",
          "type": "address"
        },
        {
          "internalType": "uint256",
          "name": "index",
          "type": "uint256"
        }
      ],
      "name": "ERC721OutOfBoundsIndex",
      "type": "error"
    },
    {
      "inputs": [
        {
          "internalType": "address",
          "name": "owner",
          "type": "address"
        }
      ],
      "name": "OwnableInvalidOwner",
      "type": "error"
    },
    {
      "inputs": [
        {
          "internalType": "address",
          "name": "account",
          "type": "address"
        }
      ],
      "name": "OwnableUnauthorizedAccount",
      "type": "error"
    },
    {
      "anonymous": false,
      "inputs": [
        {
          "indexed": true,
          "internalType": "address",
          "name": "owner",
          "type": "address"
        },
        {
          "indexed": true,
          "internalType": "address",
          "name": "approved",
          "type": "address"
        },
        {
          "indexed": true,
          "internalType": "uint256",
          "name": "tokenId",
          "type": "uint256"
        }
      ],
      "name": "Approval",
      "type": "event"
    },
    {
      "anonymous": false,
      "inputs": [
        {
          "indexed": true,
          "internalType": "address",
          "name": "owner",
          "type": "address"
        },
        {
          "indexed": true,
          "internalType": "address",
          "name": "operator",
          "type": "address"
        },
        {
          "indexed": false,
          "internalType": "bool",
          "name": "approved",
          "type": "bool"
        }
      ],
      "name": "ApprovalForAll",
      "type": "event"
    },
    {
      "anonymous": false,
      "inputs": [
        {
          "indexed": true,
          "internalType": "address",
          "name": "previousOwner",
          "type": "address"
        },
        {
          "indexed": true,
          "internalType": "address",
          "name": "newOwner",
          "type": "address"
        }
      ],
      "name": "OwnershipTransferred",
      "type": "event"
    },
    {
      "anonymous": false,
      "inputs": [
        {
          "indexed": true,
          "internalType": "address",
          "name": "from",
          "type": "address"
        },
        {
          "indexed": true,
          "internalType": "address",
          "name": "to",
          "type": "address"
        },
        {
          "indexed": true,
          "internalType": "uint256",
          "name": "tokenId",
          "type": "uint256"
        }
      ],
      "name": "Transfer",
      "type": "event"
    },
    {
      "inputs": [
        {
          "internalType": "address",
          "name": "to",
          "type": "address"
        },
        {
          "internalType": "uint256",
          "name": "tokenId",
          "type": "uint256"
        }
      ],
      "name": "approve",
      "outputs": [],
      "stateMutability": "nonpayable",
      "type": "function"
    },
    {
      "inputs": [
        {
          "internalType": "address",
          "name": "owner",
          "type": "address"
        }
      ],
      "name": "balanceOf",
      "outputs": [
        {
          "internalType": "uint256",
          "name": "",
          "type": "uint256"
        }
      ],
      "stateMutability": "view",
      "type": "function"
    },
    {
      "inputs": [
        {
          "internalType": "uint256",
          "name": "tokenId",
          "type": "uint256"
        }
      ],
      "name": "getApproved",
      "outputs": [
        {
          "internalType": "address",
          "name": "",
          "type": "address"
        }
      ],
      "stateMutability": "view",
      "type": "function"
    },
    {
      "inputs": [
        {
          "internalType": "uint256",
          "name": "tokenId",
          "type": "uint256"
        }
      ],
      "name": "getRarity",
      "outputs": [
        {
          "internalType": "enum DemoNFT.Rarity",
          "name": "",
          "type": "uint8"
        }
      ],
      "stateMutability": "view",
      "type": "function"
    },
    {
      "inputs": [
        {
          "internalType": "address",
          "name": "owner",
          "type": "address"
        },
        {
          "internalType": "address",
          "name": "operator",
          "type": "address"
        }
      ],
      "name": "isApprovedForAll",
      "outputs": [
        {
          "internalType": "bool",
          "name": "",
          "type": "bool"
        }
      ],
      "stateMutability": "view",
      "type": "function"
    },
    {
      "inputs": [],
      "name": "mint",
      "outputs": [],
      "stateMutability": "nonpayable",
      "type": "function"
    },
    {
      "inputs": [],
      "name": "name",
      "outputs": [
        {
          "internalType": "string",
          "name": "",
          "type": "string"
        }
      ],
      "stateMutability": "view",
      "type": "function"
    },
    {
      "inputs": [],
      "name": "nextTokenId",
      "outputs": [
        {
          "internalType": "uint256",
          "name": "",
          "type": "uint256"
        }
      ],
      "stateMutability": "view",
      "type": "function"
    },
    {
      "inputs": [],
      "name": "owner",
      "outputs": [
        {
          "internalType": "address",
          "name": "",
          "type": "address"
        }
      ],
      "stateMutability": "view",
      "type": "function"
    },
    {
      "inputs": [
        {
          "internalType": "uint256",
          "name": "tokenId",
          "type": "uint256"
        }
      ],
      "name": "ownerOf",
      "outputs": [
        {
          "internalType": "address",
          "name": "",
          "type": "address"
        }
      ],
      "stateMutability": "view",
      "type": "function"
    },
    {
      "inputs": [],
      "name": "renounceOwnership",
      "outputs": [],
      "stateMutability": "nonpayable",
      "type": "function"
    },
    {
      "inputs": [
        {
          "internalType": "address",
          "name": "from",
          "type": "address"
        },
        {
          "internalType": "address",
          "name": "to",
          "type": "address"
        },
        {
          "internalType": "uint256",
          "name": "tokenId",
          "type": "uint256"
        }
      ],
      "name": "safeTransferFrom",
      "outputs": [],
      "stateMutability": "nonpayable",
      "type": "function"
    },
    {
      "inputs": [
        {
          "internalType": "address",
          "name": "from",
          "type": "address"
        },
        {
          "internalType": "address",
          "name": "to",
          "type": "address"
        },
        {
          "internalType": "uint256",
          "name": "tokenId",
          "type": "uint256"
        },
        {
          "internalType": "bytes",
          "name": "data",
          "type": "bytes"
        }
      ],
      "name": "safeTransferFrom",
      "outputs": [],
      "stateMutability": "nonpayable",
      "type": "function"
    },
    {
      "inputs": [
        {
          "internalType": "address",
          "name": "operator",
          "type": "address"
        },
        {
          "internalType": "bool",
          "name": "approved",
          "type": "bool"
        }
      ],
      "name": "setApprovalForAll",
      "outputs": [],
      "stateMutability": "nonpayable",
      "type": "function"
    },
    {
      "inputs": [
        {
          "internalType": "bytes4",
          "name": "interfaceId",
          "type": "bytes4"
        }
      ],
      "name": "supportsInterface",
      "outputs": [
        {
          "internalType": "bool",
          "name": "",
          "type": "bool"
        }
      ],
      "stateMutability": "view",
      "type": "function"
    },
    {
      "inputs": [],
      "name": "symbol",
      "outputs": [
        {
          "internalType": "string",
          "name": "",
          "type": "string"
        }
      ],
      "stateMutability": "view",
      "type": "function"
    },
    {
      "inputs": [
        {
          "internalType": "uint256",
          "name": "index",
          "type": "uint256"
        }
      ],
      "name": "tokenByIndex",
      "outputs": [
        {
          "internalType": "uint256",
          "name": "",
          "type": "uint256"
        }
      ],
      "stateMutability": "view",
      "type": "function"
    },
    {
      "inputs": [
        {
          "internalType": "address",
          "name": "owner",
          "type": "address"
        },
        {
          "internalType": "uint256",
          "name": "index",
          "type": "uint256"
        }
      ],
      "name": "tokenOfOwnerByIndex",
      "outputs": [
        {
          "internalType": "uint256",
          "name": "",
          "type": "uint256"
        }
      ],
      "stateMutability": "view",
      "type": "function"
    },
    {
      "inputs": [
        {
          "internalType": "uint256",
          "name": "",
          "type": "uint256"
        }
      ],
      "name": "tokenRarity",
      "outputs": [
        {
          "internalType": "enum DemoNFT.Rarity",
          "name": "",
          "type": "uint8"
        }
      ],
      "stateMutability": "view",
      "type": "function"
    },
    {
      "inputs": [
        {
          "internalType": "uint256",
          "name": "tokenId",
          "type": "uint256"
        }
      ],
      "name": "tokenURI",
      "outputs": [
        {
          "internalType": "string",
          "name": "",
          "type": "string"
        }
      ],
      "stateMutability": "view",
      "type": "function"
    },
    {
      "inputs": [],
      "name": "totalSupply",
      "outputs": [
        {
          "internalType": "uint256",
          "name": "",
          "type": "uint256"
        }
      ],
      "stateMutability": "view",
      "type": "function"
    },
    {
      "inputs": [
        {
          "internalType": "address",
          "name": "from",
          "type": "address"
        },
        {
          "internalType": "address",
          "name": "to",
          "type": "address"
        },
        {
          "internalType": "uint256",
          "name": "tokenId",
          "type": "uint256"
        }
      ],
      "name": "transferFrom",
      "outputs": [],
      "stateMutability": "nonpayable",
      "type": "function"
    },
    {
      "inputs": [
        {
          "internalType": "address",
          "name": "newOwner",
          "type": "address"
        }
      ],
      "name": "transferOwnership",
      "outputs": [],
      "stateMutability": "nonpayable",
      "type": "function"
    }
  ],
  "bytecode": "0x60806040523480156200001157600080fd5b50336040518060400160405280600881526020017f44656d6f204e46540000000000000000000000000000000000000000000000008152506040518060400160405280600481526020017f444e465400000000000000000000000000000000000000000000000000000000815250816000908162000090919062000472565b508060019081620000a2919062000472565b505050600073ffffffffffffffffffffffffffffffffffffffff168173ffffffffffffffffffffffffffffffffffffffff16036200011a5760006040517f1e4fbdf70000000000000000000000000000000000000000000000000000000081526004016200011191906200059e565b60405180910390fd5b6200012b816200013260201b60201c565b50620005bb565b6000600a60009054906101000a900473ffffffffffffffffffffffffffffffffffffffff16905081600a60006101000a81548173ffffffffffffffffffffffffffffffffffffffff021916908373ffffffffffffffffffffffffffffffffffffffff1602179055508173ffffffffffffffffffffffffffffffffffffffff168173ffffffffffffffffffffffffffffffffffffffff167f8be0079c531659141344cd1fd0a4f28419497f9722a3daafe3b4186f6b6457e060405160405180910390a35050565b600081519050919050565b7f4e487b7100000000000000000000000000000000000000000000000000000000600052604160045260246000fd5b7f4e487b7100000000000000000000000000000000000000000000000000000000600052602260045260246000fd5b600060028204905060018216806200027a57607f821691505b60208210810362000290576200028f62000232565b5b50919050565b60008190508160005260206000209050919050565b60006020601f8301049050919050565b600082821b905092915050565b600060088302620002fa7fffffffffffffffffffffffffffffffffffffffffffffffffffffffffffffffff82620002bb565b620003068683620002bb565b95508019841693508086168417925050509392505050565b6000819050919050565b6000819050919050565b6000620003536200034d62000347846200031e565b62000328565b6200031e565b9050919050565b6000819050919050565b6200036f8362000332565b620003876200037e826200035a565b848454620002c8565b825550505050565b600090565b6200039e6200038f565b620003ab81848462000364565b505050565b5b81811015620003d357620003c760008262000394565b600181019050620003b1565b5050565b601f8211156200042257620003ec8162000296565b620003f784620002ab565b8101602085101562000407578190505b6200041f6200041685620002ab565b830182620003b0565b50505b505050565b600082821c905092915050565b6000620004476000198460080262000427565b1980831691505092915050565b600062000462838362000434565b9150826002028217905092915050565b6200047d82620001f8565b67ffffffffffffffff81111562000499576200049862000203565b5b620004a5825462000261565b620004b2828285620003d7565b600060209050601f831160018114620004ea5760008415620004d5578287015190505b620004e1858262000454565b86555062000551565b601f198416620004fa8662000296565b60005b828110156200052457848901518255600182019150602085019450602081019050620004fd565b8683101562000544578489015162000540601f89168262000434565b8355505b6001600288020188555050505b505050505050565b600073ffffffffffffffffffffffffffffffffffffffff82169050919050565b6000620005868262000559565b9050919050565b620005988162000579565b82525050565b6000602082019050620005b560008301846200058d565b92915050565b612b6080620005cb6000396000f3fe608060405234801561001057600080fd5b506004361061014d5760003560e01c80636352211e116100c3578063a22cb4651161007c578063a22cb465146103a0578063afb0a369146103bc578063b88d4fde146103ec578063c87b56dd14610408578063e985e9c514610438578063f2fde38b146104685761014d565b80636352211e146102dc57806370a082311461030c578063715018a61461033c57806375794a3c146103465780638da5cb5b1461036457806395d89b41146103825761014d565b806318160ddd1161011557806318160ddd146101f657806323b872dd146102145780632f745c591461023057806342842e0e14610260578063487586971461027c5780634f6ccce7146102ac5761014d565b806301ffc9a71461015257806306fdde0314610182578063081812fc146101a0578063095ea7b3146101d05780631249c58b146101ec575b600080fd5b61016c600480360381019061016791906120c8565b610484565b6040516101799190612110565b60405180910390f35b61018a6104fe565b60405161019791906121bb565b60405180910390f35b6101ba60048036038101906101b59190612213565b610590565b6040516101c79190612281565b60405180910390f35b6101ea60048036038101906101e591906122c8565b6105ac565b005b6101f46105c2565b005b6101fe610746565b60405161020b9190612317565b60405180910390f35b61022e60048036038101906102299190612332565b610753565b005b61024a600480360381019061024591906122c8565b610855565b6040516102579190612317565b60405180910390f35b61027a60048036038101906102759190612332565b6108fe565b005b61029660048036038101906102919190612213565b61091e565b6040516102a391906123fc565b60405180910390f35b6102c660048036038101906102c19190612213565b610952565b6040516102d39190612317565b60405180910390f35b6102f660048036038101906102f19190612213565b6109c8565b6040516103039190612281565b60405180910390f35b61032660048036038101906103219190612417565b6109da565b6040516103339190612317565b60405180910390f35b610344610a94565b005b61034e610aa8565b60405161035b9190612317565b60405180910390f35b61036c610aae565b6040516103799190612281565b60405180910390f35b61038a610ad8565b60405161039791906121bb565b60405180910390f35b6103ba60048036038101906103b59190612470565b610b6a565b005b6103d660048036038101906103d19190612213565b610b80565b6040516103e391906123fc565b60405180910390f35b610406600480360381019061040191906125e5565b610ba0565b005b610422600480360381019061041d9190612213565b610bc5565b60405161042f91906121bb565b60405180910390f35b610452600480360381019061044d9190612668565b610c00565b60405161045f9190612110565b60405180910390f35b610482600480360381019061047d9190612417565b610c94565b005b60007f780e9d63000000000000000000000000000000000000000000000000000000007bffffffffffffffffffffffffffffffffffffffffffffffffffffffff1916827bffffffffffffffffffffffffffffffffffffffffffffffffffffffff191614806104f757506104f682610d1a565b5b9050919050565b60606000805461050d906126d7565b80601f0160208091040260200160405190810160405280929190818152602001828054610539906126d7565b80156105865780601f1061055b57610100808354040283529160200191610586565b820191906000526020600020905b81548152906001019060200180831161056957829003601f168201915b5050505050905090565b600061059b82610dfc565b506105a582610e84565b9050919050565b6105be82826105b9610ec1565b610ec9565b5050565b6000600c60008154809291906105d790612737565b9190505590506105e73382610edb565b60006064423384604051602001610600939291906127e8565b6040516020818303038152906040528051906020012060001c6106239190612854565b9050603c81101561066f576000600b600084815260200190815260200160002060006101000a81548160ff0219169083600381111561066557610664612385565b5b0217905550610742565b60558110156106b9576001600b600084815260200190815260200160002060006101000a81548160ff021916908360038111156106af576106ae612385565b5b0217905550610741565b605f811015610703576002600b600084815260200190815260200160002060006101000a81548160ff021916908360038111156106f9576106f8612385565b5b0217905550610740565b6003600b600084815260200190815260200160002060006101000a81548160ff0219169083600381111561073a57610739612385565b5b02179055505b5b5b5050565b6000600880549050905090565b600073ffffffffffffffffffffffffffffffffffffffff168273ffffffffffffffffffffffffffffffffffffffff16036107c55760006040517f64a0ae920000000000000000000000000000000000000000000000000000000081526004016107bc9190612281565b60405180910390fd5b60006107d983836107d4610ec1565b610ef9565b90508373ffffffffffffffffffffffffffffffffffffffff168173ffffffffffffffffffffffffffffffffffffffff161461084f578382826040517f64283d7b00000000000000000000000000000000000000000000000000000000815260040161084693929190612885565b60405180910390fd5b50505050565b6000610860836109da565b82106108a55782826040517fa57d13dc00000000000000000000000000000000000000000000000000000000815260040161089c9291906128bc565b60405180910390fd5b600660008473ffffffffffffffffffffffffffffffffffffffff1673ffffffffffffffffffffffffffffffffffffffff168152602001908152602001600020600083815260200190815260200160002054905092915050565b61091983838360405180602001604052806000815250610ba0565b505050565b600061092982610dfc565b50600b600083815260200190815260200160002060009054906101000a900460ff169050919050565b600061095c610746565b82106109a2576000826040517fa57d13dc0000000000000000000000000000000000000000000000000000000081526004016109999291906128bc565b60405180910390fd5b600882815481106109b6576109b56128e5565b5b90600052602060002001549050919050565b60006109d382610dfc565b9050919050565b60008073ffffffffffffffffffffffffffffffffffffffff168273ffffffffffffffffffffffffffffffffffffffff1603610a4d5760006040517f89c62b64000000000000000000000000000000000000000000000000000000008152600401610a449190612281565b60405180910390fd5b600360008373ffffffffffffffffffffffffffffffffffffffff1673ffffffffffffffffffffffffffffffffffffffff168152602001908152602001600020549050919050565b610a9c611016565b610aa6600061109d565b565b600c5481565b6000600a60009054906101000a900473ffffffffffffffffffffffffffffffffffffffff16905090565b606060018054610ae7906126d7565b80601f0160208091040260200160405190810160405280929190818152602001828054610b13906126d7565b8015610b605780601f10610b3557610100808354040283529160200191610b60565b820191906000526020600020905b815481529060010190602001808311610b4357829003601f168201915b5050505050905090565b610b7c610b75610ec1565b8383611163565b5050565b600b6020528060005260406000206000915054906101000a900460ff1681565b610bab848484610753565b610bbf610bb6610ec1565b858585856112d2565b50505050565b6060610bd082610dfc565b50610bda82611483565b604051602001610bea91906129c2565b6040516020818303038152906040529050919050565b6000600560008473ffffffffffffffffffffffffffffffffffffffff1673ffffffffffffffffffffffffffffffffffffffff16815260200190815260200160002060008373ffffffffffffffffffffffffffffffffffffffff1673ffffffffffffffffffffffffffffffffffffffff16815260200190815260200160002060009054906101000a900460ff16905092915050565b610c9c611016565b600073ffffffffffffffffffffffffffffffffffffffff168173ffffffffffffffffffffffffffffffffffffffff1603610d0e5760006040517f1e4fbdf7000000000000000000000000000000000000000000000000000000008152600401610d059190612281565b60405180910390fd5b610d178161109d565b50565b60007f80ac58cd000000000000000000000000000000000000000000000000000000007bffffffffffffffffffffffffffffffffffffffffffffffffffffffff1916827bffffffffffffffffffffffffffffffffffffffffffffffffffffffff19161480610de557507f5b5e139f000000000000000000000000000000000000000000000000000000007bffffffffffffffffffffffffffffffffffffffffffffffffffffffff1916827bffffffffffffffffffffffffffffffffffffffffffffffffffffffff1916145b80610df55750610df482611551565b5b9050919050565b600080610e08836115bb565b9050600073ffffffffffffffffffffffffffffffffffffffff168173ffffffffffffffffffffffffffffffffffffffff1603610e7b57826040517f7e273289000000000000000000000000000000000000000000000000000000008152600401610e729190612317565b60405180910390fd5b80915050919050565b60006004600083815260200190815260200160002060009054906101000a900473ffffffffffffffffffffffffffffffffffffffff169050919050565b600033905090565b610ed683838360016115f8565b505050565b610ef58282604051806020016040528060008152506117bd565b5050565b600080610f078585856117e1565b9050600073ffffffffffffffffffffffffffffffffffffffff168173ffffffffffffffffffffffffffffffffffffffff1603610f4b57610f46846119fb565b610f8a565b8473ffffffffffffffffffffffffffffffffffffffff168173ffffffffffffffffffffffffffffffffffffffff1614610f8957610f888185611a44565b5b5b600073ffffffffffffffffffffffffffffffffffffffff168573ffffffffffffffffffffffffffffffffffffffff1603610fcc57610fc784611b2f565b61100b565b8473ffffffffffffffffffffffffffffffffffffffff168173ffffffffffffffffffffffffffffffffffffffff161461100a576110098585611c00565b5b5b809150509392505050565b61101e610ec1565b73ffffffffffffffffffffffffffffffffffffffff1661103c610aae565b73ffffffffffffffffffffffffffffffffffffffff161461109b5761105f610ec1565b6040517f118cdaa70000000000000000000000000000000000000000000000000000000081526004016110929190612281565b60405180910390fd5b565b6000600a60009054906101000a900473ffffffffffffffffffffffffffffffffffffffff16905081600a60006101000a81548173ffffffffffffffffffffffffffffffffffffffff021916908373ffffffffffffffffffffffffffffffffffffffff1602179055508173ffffffffffffffffffffffffffffffffffffffff168173ffffffffffffffffffffffffffffffffffffffff167f8be0079c531659141344cd1fd0a4f28419497f9722a3daafe3b4186f6b6457e060405160405180910390a35050565b600073ffffffffffffffffffffffffffffffffffffffff168273ffffffffffffffffffffffffffffffffffffffff16036111d457816040517f5b08ba180000000000000000000000000000000000000000000000000000000081526004016111cb9190612281565b60405180910390fd5b80600560008573ffffffffffffffffffffffffffffffffffffffff1673ffffffffffffffffffffffffffffffffffffffff16815260200190815260200160002060008473ffffffffffffffffffffffffffffffffffffffff1673ffffffffffffffffffffffffffffffffffffffff16815260200190815260200160002060006101000a81548160ff0219169083151502179055508173ffffffffffffffffffffffffffffffffffffffff168373ffffffffffffffffffffffffffffffffffffffff167f17307eab39ab6107e8899845ad3d59bd9653f200f220920489ca2b5937696c31836040516112c59190612110565b60405180910390a3505050565b60008373ffffffffffffffffffffffffffffffffffffffff163b111561147c578273ffffffffffffffffffffffffffffffffffffffff1663150b7a02868685856040518563ffffffff1660e01b81526004016113319493929190612a39565b6020604051808303816000875af192505050801561136d57506040513d601f19601f8201168201806040525081019061136a9190612a9a565b60015b6113f1573d806000811461139d576040519150601f19603f3d011682016040523d82523d6000602084013e6113a2565b606091505b5060008151036113e957836040517f64a0ae920000000000000000000000000000000000000000000000000000000081526004016113e09190612281565b60405180910390fd5b805160208201fd5b63150b7a0260e01b7bffffffffffffffffffffffffffffffffffffffffffffffffffffffff1916817bffffffffffffffffffffffffffffffffffffffffffffffffffffffff19161461147a57836040517f64a0ae920000000000000000000000000000000000000000000000000000000081526004016114719190612281565b60405180910390fd5b505b5050505050565b60606000600161149284611c8b565b01905060008167ffffffffffffffff8111156114b1576114b06124ba565b5b6040519080825280601f01601f1916602001820160405280156114e35781602001600182028036833780820191505090505b509050600082602083010190505b600115611546578080600190039150507f3031323334353637383961626364656600000000000000000000000000000000600a86061a8153600a858161153a57611539612825565b5b049450600085036114f1575b819350505050919050565b60007f01ffc9a7000000000000000000000000000000000000000000000000000000007bffffffffffffffffffffffffffffffffffffffffffffffffffffffff1916827bffffffffffffffffffffffffffffffffffffffffffffffffffffffff1916149050919050565b60006002600083815260200190815260200160002060009054906101000a900473ffffffffffffffffffffffffffffffffffffffff169050919050565b80806116315750600073ffffffffffffffffffffffffffffffffffffffff168273ffffffffffffffffffffffffffffffffffffffff1614155b1561176557600061164184610dfc565b9050600073ffffffffffffffffffffffffffffffffffffffff168373ffffffffffffffffffffffffffffffffffffffff16141580156116ac57508273ffffffffffffffffffffffffffffffffffffffff168173ffffffffffffffffffffffffffffffffffffffff1614155b80156116bf57506116bd8184610c00565b155b1561170157826040517fa9fbf51f0000000000000000000000000000000000000000000000000000000081526004016116f89190612281565b60405180910390fd5b811561176357838573ffffffffffffffffffffffffffffffffffffffff168273ffffffffffffffffffffffffffffffffffffffff167f8c5be1e5ebec7d5bd14f71427d1e84f3dd0314c0f7b2291e5b200ac8c7c3b92560405160405180910390a45b505b836004600085815260200190815260200160002060006101000a81548173ffffffffffffffffffffffffffffffffffffffff021916908373ffffffffffffffffffffffffffffffffffffffff16021790555050505050565b6117c78383611dde565b6117dc6117d2610ec1565b60008585856112d2565b505050565b6000806117ed846115bb565b9050600073ffffffffffffffffffffffffffffffffffffffff168373ffffffffffffffffffffffffffffffffffffffff161461182f5761182e818486611ed7565b5b600073ffffffffffffffffffffffffffffffffffffffff168173ffffffffffffffffffffffffffffffffffffffff16146118c0576118716000856000806115f8565b6001600360008373ffffffffffffffffffffffffffffffffffffffff1673ffffffffffffffffffffffffffffffffffffffff168152602001908152602001600020600082825403925050819055505b600073ffffffffffffffffffffffffffffffffffffffff168573ffffffffffffffffffffffffffffffffffffffff1614611943576001600360008773ffffffffffffffffffffffffffffffffffffffff1673ffffffffffffffffffffffffffffffffffffffff168152602001908152602001600020600082825401925050819055505b846002600086815260200190815260200160002060006101000a81548173ffffffffffffffffffffffffffffffffffffffff021916908373ffffffffffffffffffffffffffffffffffffffff160217905550838573ffffffffffffffffffffffffffffffffffffffff168273ffffffffffffffffffffffffffffffffffffffff167fddf252ad1be2c89b69c2b068fc378daa952ba7f163c4a11628f55a4df523b3ef60405160405180910390a4809150509392505050565b6008805490506009600083815260200190815260200160002081905550600881908060018154018082558091505060019003906000526020600020016000909190919091505550565b6000611a4f836109da565b90506000600760008481526020019081526020016000205490506000600660008673ffffffffffffffffffffffffffffffffffffffff1673ffffffffffffffffffffffffffffffffffffffff1681526020019081526020016000209050828214611afb5760008160008581526020019081526020016000205490508082600085815260200190815260200160002081905550826007600083815260200190815260200160002081905550505b6007600085815260200190815260200160002060009055806000848152602001908152602001600020600090555050505050565b60006001600880549050611b439190612ac7565b9050600060096000848152602001908152602001600020549050600060088381548110611b7357611b726128e5565b5b906000526020600020015490508060088381548110611b9557611b946128e5565b5b906000526020600020018190555081600960008381526020019081526020016000208190555060096000858152602001908152602001600020600090556008805480611be457611be3612afb565b5b6001900381819060005260206000200160009055905550505050565b60006001611c0d846109da565b611c179190612ac7565b905081600660008573ffffffffffffffffffffffffffffffffffffffff1673ffffffffffffffffffffffffffffffffffffffff168152602001908152602001600020600083815260200190815260200160002081905550806007600084815260200190815260200160002081905550505050565b600080600090507a184f03e93ff9f4daa797ed6e38ed64bf6a1f0100000000000000008310611ce9577a184f03e93ff9f4daa797ed6e38ed64bf6a1f0100000000000000008381611cdf57611cde612825565b5b0492506040810190505b6d04ee2d6d415b85acef81000000008310611d26576d04ee2d6d415b85acef81000000008381611d1c57611d1b612825565b5b0492506020810190505b662386f26fc100008310611d5557662386f26fc100008381611d4b57611d4a612825565b5b0492506010810190505b6305f5e1008310611d7e576305f5e1008381611d7457611d73612825565b5b0492506008810190505b6127108310611da3576127108381611d9957611d98612825565b5b0492506004810190505b60648310611dc65760648381611dbc57611dbb612825565b5b0492506002810190505b600a8310611dd5576001810190505b80915050919050565b600073ffffffffffffffffffffffffffffffffffffffff168273ffffffffffffffffffffffffffffffffffffffff1603611e505760006040517f64a0ae92000000000000000000000000000000000000000000000000000000008152600401611e479190612281565b60405180910390fd5b6000611e5e83836000610ef9565b9050600073ffffffffffffffffffffffffffffffffffffffff168173ffffffffffffffffffffffffffffffffffffffff1614611ed25760006040517f73c6ac6e000000000000000000000000000000000000000000000000000000008152600401611ec99190612281565b60405180910390fd5b505050565b611ee2838383611f9b565b611f9657600073ffffffffffffffffffffffffffffffffffffffff168373ffffffffffffffffffffffffffffffffffffffff1603611f5757806040517f7e273289000000000000000000000000000000000000000000000000000000008152600401611f4e9190612317565b60405180910390fd5b81816040517f177e802f000000000000000000000000000000000000000000000000000000008152600401611f8d9291906128bc565b60405180910390fd5b505050565b60008073ffffffffffffffffffffffffffffffffffffffff168373ffffffffffffffffffffffffffffffffffffffff161415801561205357508273ffffffffffffffffffffffffffffffffffffffff168473ffffffffffffffffffffffffffffffffffffffff16148061201457506120138484610c00565b5b8061205257508273ffffffffffffffffffffffffffffffffffffffff1661203a83610e84565b73ffffffffffffffffffffffffffffffffffffffff16145b5b90509392505050565b6000604051905090565b600080fd5b600080fd5b60007fffffffff0000000000000000000000000000000000000000000000000000000082169050919050565b6120a581612070565b81146120b057600080fd5b50565b6000813590506120c28161209c565b92915050565b6000602082840312156120de576120dd612066565b5b60006120ec848285016120b3565b91505092915050565b60008115159050919050565b61210a816120f5565b82525050565b60006020820190506121256000830184612101565b92915050565b600081519050919050565b600082825260208201905092915050565b60005b8381101561216557808201518184015260208101905061214a565b60008484015250505050565b6000601f19601f8301169050919050565b600061218d8261212b565b6121978185612136565b93506121a7818560208601612147565b6121b081612171565b840191505092915050565b600060208201905081810360008301526121d58184612182565b905092915050565b6000819050919050565b6121f0816121dd565b81146121fb57600080fd5b50565b60008135905061220d816121e7565b92915050565b60006020828403121561222957612228612066565b5b6000612237848285016121fe565b91505092915050565b600073ffffffffffffffffffffffffffffffffffffffff82169050919050565b600061226b82612240565b9050919050565b61227b81612260565b82525050565b60006020820190506122966000830184612272565b92915050565b6122a581612260565b81146122b057600080fd5b50565b6000813590506122c28161229c565b92915050565b600080604083850312156122df576122de612066565b5b60006122ed858286016122b3565b92505060206122fe858286016121fe565b9150509250929050565b612311816121dd565b82525050565b600060208201905061232c6000830184612308565b92915050565b60008060006060848603121561234b5761234a612066565b5b6000612359868287016122b3565b935050602061236a868287016122b3565b925050604061237b868287016121fe565b9150509250925092565b7f4e487b7100000000000000000000000000000000000000000000000000000000600052602160045260246000fd5b600481106123c5576123c4612385565b5b50565b60008190506123d6826123b4565b919050565b60006123e6826123c8565b9050919050565b6123f6816123db565b82525050565b600060208201905061241160008301846123ed565b92915050565b60006020828403121561242d5761242c612066565b5b600061243b848285016122b3565b91505092915050565b61244d816120f5565b811461245857600080fd5b50565b60008135905061246a81612444565b92915050565b6000806040838503121561248757612486612066565b5b6000612495858286016122b3565b92505060206124a68582860161245b565b9150509250929050565b600080fd5b600080fd5b7f4e487b7100000000000000000000000000000000000000000000000000000000600052604160045260246000fd5b6124f282612171565b810181811067ffffffffffffffff82111715612511576125106124ba565b5b80604052505050565b600061252461205c565b905061253082826124e9565b919050565b600067ffffffffffffffff8211156125505761254f6124ba565b5b61255982612171565b9050602081019050919050565b82818337600083830152505050565b600061258861258384612535565b61251a565b9050828152602081018484840111156125a4576125a36124b5565b5b6125af848285612566565b509392505050565b600082601f8301126125cc576125cb6124b0565b5b81356125dc848260208601612575565b91505092915050565b600080600080608085870312156125ff576125fe612066565b5b600061260d878288016122b3565b945050602061261e878288016122b3565b935050604061262f878288016121fe565b925050606085013567ffffffffffffffff8111156126505761264f61206b565b5b61265c878288016125b7565b91505092959194509250565b6000806040838503121561267f5761267e612066565b5b600061268d858286016122b3565b925050602061269e858286016122b3565b9150509250929050565b7f4e487b7100000000000000000000000000000000000000000000000000000000600052602260045260246000fd5b600060028204905060018216806126ef57607f821691505b602082108103612702576127016126a8565b5b50919050565b7f4e487b7100000000000000000000000000000000000000000000000000000000600052601160045260246000fd5b6000612742826121dd565b91507fffffffffffffffffffffffffffffffffffffffffffffffffffffffffffffffff820361277457612773612708565b5b600182019050919050565b6000819050919050565b61279a612795826121dd565b61277f565b82525050565b60008160601b9050919050565b60006127b8826127a0565b9050919050565b60006127ca826127ad565b9050919050565b6127e26127dd82612260565b6127bf565b82525050565b60006127f48286612789565b60208201915061280482856127d1565b6014820191506128148284612789565b602082019150819050949350505050565b7f4e487b7100000000000000000000000000000000000000000000000000000000600052601260045260246000fd5b600061285f826121dd565b915061286a836121dd565b92508261287a57612879612825565b5b828206905092915050565b600060608201905061289a6000830186612272565b6128a76020830185612308565b6128b46040830184612272565b949350505050565b60006040820190506128d16000830185612272565b6128de6020830184612308565b9392505050565b7f4e487b7100000000000000000000000000000000000000000000000000000000600052603260045260246000fd5b600081905092915050565b7f68747470733a2f2f6170692e64696365626561722e636f6d2f372e782f61766160008201527f7461616172732f7376673f736565643d00000000000000000000000000000000602082015250565b600061297b603083612914565b91506129868261291f565b603082019050919050565b600061299c8261212b565b6129a68185612914565b93506129b6818560208601612147565b80840191505092915050565b60006129cd8261296e565b91506129d98284612991565b915081905092915050565b600081519050919050565b600082825260208201905092915050565b6000612a0b826129e4565b612a1581856129ef565b9350612a25818560208601612147565b612a2e81612171565b840191505092915050565b6000608082019050612a4e6000830187612272565b612a5b6020830186612272565b612a686040830185612308565b8181036060830152612a7a8184612a00565b905095945050505050565b600081519050612a948161209c565b92915050565b600060208284031215612ab057612aaf612066565b5b6000612abe84828501612a85565b91505092915050565b6000612ad2826121dd565b9150612add836121dd565b9250828203905081811115612af557612af4612708565b5b92915050565b7f4e487b7100000000000000000000000000000000000000000000000000000000600052603160045260246000fdfea26469706673582212207a808e3daf9f4bfd16daecea653b80097245ed4be951ec169dc96a23d6f2948764736f6c63430008140033",
  "linkReferences": {},
  "deployedLinkReferences": {}
}